:0200000021C815
:02000300805A21
:02000B0001DB17
:020013002107C3
:02001B002108BA
:02002300212F8B
:02002B00213082
:0200330001CDFD
:02003B00212E74
:02004300801823
:02005300215931
:10005B008001323220186AC0E0C0D0C2A8E55871C6
:10006B009DC0F030E042E55930E03DD2E630E20889
:10007B0020E405A2E3B392B120B017D5F0FA8008C3
:10008B0030B00FD5F0FA8000D2E730E21920E41639
:10009B00800DC2E730E20F30E405A2E3B392B1303A
:1000AB00E504A2E392B1F559C000785475F004064B
:1000BB00E6700408D5F0F8D202D000D0F0D0D0D042
:1000CB00E032C2DD201102D204121B9575220032E0
:1000DB00C0E0C0D0C000C0F0783875F00406E67000
:1000EB001208D5F0F8E53D600AD200C28CC2A9E532
:1000FB003C719DD0F0D000D0D0D0E03232C0E0C007
:10010B00D0C000C0F0784F75F00406E6700C08D52F
:10011B00F0F8C2ABD203E553719DD0F0D000D0D034
:10012B00D0E0323232C2CFC0E0C0D0C000C0F078D5
:10013B004475F00406E6700D08D5F0F81218C1D21C
:10014B0001E548719DD0F0D000D0D0D0E03232C064
:10015B00E0E53120E710D20FC20EC20D852180D20F
:10016B00A4C2A4D0E022D20F852180D2A4C2A4F5D0
:0F017B00F7C20EC20D852180D2A4C2A430FFFDB1
:10018A00D0E022C0E0E53120E714C28CC2A9D20F28
:10019A00C20EC20D852180D2A4C2A4D0E022C28C94
:1001AA00C2A9D20F852180D2A4C2A4F5F7C20EC279
:1001BA000D852180D2A4C2A430FFFDD0E022C2AFB7
:1001CA0075817F75D70043AF0175F834C28C759875
:1001DA0050438920758BFD758DFDD28ED2AFD2AC7E
:1001EA0075C80075CA0075CB00121886C2A8D288D5
:1001FA00D2B812196B75FD1F752000752200752380
:10020A000075676575683D121A03121C00121AF808
:10021A00121D6230C2089006DB121D7080379005ED
:10022A00F8121D70C2B6D2B4120D77120D39121D12
:10023A002E1208C4120B75120D3C121D2E120D3906
:10024A00121D2E1208C41208DA120BF412094F906A
:10025A00060B121D70D2C075C07275F000E5312010
:10026A00E700D5F008C2AFD2C0D2C1D2AFC0F07198
:10027A0031121D57D0F040EA51CD75F00080E37578
:10028A00F834200F02F5F7E5206005713175F8346E
:10029A0020980C121D5CD0F040E551CD75F8342041
:1002AA000F0EF5F7C2AFD2C0D2C1D2AFF5F780D2E6
:1002BA00C2AFD2C0D2C1D2AF80C8C2AFD2C0D2C13F
:1002CA00D2AF22C2AFD2C0D2C1D2AFF5F07584008C
:1002DA00900513E493A36035B5F02EE493F9A3E4F3
:1002EA0093F8E5F0121D3F9002FEC082C083C00061
:1002FA00C001C3227584004008900613121D708045
:10030A001DE583458270F58015A3A380C69006EC8F
:10031A00121D70E5F0121D3F900700121D70C2AF4A
:10032A00D2C0D2C1D2AF22E520700922C2AFD2C058
:10033A00D2C1D2AF745B121D3F300004C2009125B6
:10034A00300104C201912C300204C20291333003FD
:10035A0004C2039150300404C2049157300504C208
:10036A0005916830060EC2069007FE121D70E567F9
:10037A00600251CD30070EC2079007FE121D70E5CC
:10038A0068600251CD745D121D3FC2AFD2C0D2C1A6
:10039A00D2AF2230E31A201917C0E0E55B30E3033D
:1003AA00121ABB75D840D2DDD2AED210D219D0E023
:1003BA0030E010C0E0E55B30E003121ABBD0E03158
:1003CA008DD20530E126C0E0E55B30E103121ABBAD
:1003DA00D0E020E2031216CBD20ED20D852180D2B4
:1003EA00A4C2A4C20F852180D2A4C2A430E20FC045
:1003FA00E0E55B30E203121ABBD0E01216E830E403
:10040A000FC0E0E55B30E403121ABBD0E01219AC6E
:10041A0030E602D20630E702D20722900774121D94
:10042A007022900789121D70229007B2121D70E582
:08043A005920E6012220E7072A
:100442009007C6121D70229007DB121D70229007C2
:100452009C121D70227424121D3F121BB9900613A8
:10046200121D70C21922318DE52270FCE55930E669
:100472004630E7437425121D3F1217E4900613120B
:100482001D707465121D3F1209677496121CCF907D
:100492000613121D7091F21216CBD20ED20D8521C7
:1004A20080D2A4C2A4C20F852180D2A4C2A4D21831
:1004B200D2A80000C218227443121D3F120A2090D3
:1004C2000613121D7091F2786275F00406E6701B35
:1004D20008D5F0F8C28CC2A9C2CAC2ADC28EC2ABE4
:1004E200C2A8900761121D70021A45E566719D222D
:1004F200E55930E61B30E21830E40320E70CA2E3B2
:10050200B392B130E504B392B1C3C2E6C2E7F55982
:10051200225F08A6690D323F0D172B1AEF2D1AF232
:100522002A1AF57208AF5208C45309CA4508DA5E9E
:10053200094D240948650A7B6D0A1F660AC7730BB9
:1005420034640C186F0C58630C70430C74300CE953
:10055200310CF3700CFD500D076E0D114F0C792309
:1005620009617C0B57330D3F780D39580D3C620DF4
:1005720062420D774D1C1F611BA9411BE0241BB970
:100582003E0D7A7917914816E85917945A177D7AD1
:1005920017992517E46717083B1706681738471796
:1005A2006C7518C15518EE5618DC7618F3261935F5
:1005B2006A186E4A18814B186E6C19AC4C19DB51D3
:1005C20019BE7119DE3C19C32F1A8B401A45281A1D
:1005D2002D291A56571AD8771AE17E1AEA2C0D9F3E
:1005E200200DA22E0DA93D15CA46160C3A16364903
:1005F20016632716780021556E6974206973206F7F
:100602006E206C696E652E20002052656164790D42
:10061200004F4B0D004D656469706978206368690D
:1006220070733A20004D65646970697820322E310A
:100632002063686970733A20004D65646970697857
:10064200204D58522063686970733A20004D6564EA
:1006520069706978205450585858206368697073DB
:100662003A20004D656469706978205553422072C2
:100672006561646F757420696E7465726661636525
:100682002E0A4669726D77617265207665727369AA
:100692006F6E3A312E322E30610D004B6E6F776ED7
:1006A20020636F6D6D616E64733A200031323334B2
:1006B20035363738393071776572747975696F708C
:1006C2006173646667686A6B6C7A786376626E6D72
:1006D20000214572726F720D002157617463686464
:1006E2006F6720616C6572740D0021556E6B6E6FC1
:1006F200776E20636F6D6D616E643A202200220D69
:1007020000214D6564697069782063686970626F61
:10071200617264206973206E6F7420636F6E6E6500
:10072200637465640D002142616420726573706FA9
:100732006E73652066726F6D204D656469706978AD
:10074200202D204E6F20456E61626C65204F7574BE
:100752000D0021465352204661696C65640D0022EA
:100762004672616D65732066696E6973686564229D
:100772000D0022496E74657276616C2066696E693D
:1007820073686564220D0022506572696F64206689
:10079200696E6973686564220D0022436F756E7419
:1007A2006572206F766572666C6F776564220D00E4
:0D07B2002254726967676572206465746582
:1007BF0063746564220D0022436F696E636964651B
:1007CF006E63652076616C6964220D0022436F6948
:1007DF006E636964656E636520696E76616C6964CA
:1007EF00220D0022436F6D6D616E6431220D002268
:1007FF00436F6D6D616E6432220D002253636F7013
:10080F0065220D00544F444F20616374696F6E73FE
:10081F003A2000436C6F736520736875747465724A
:10082F0020004F70656E20736875747465722000B8
:10083F00537461727420696E74657276616C2000F6
:10084F0053746172742073636F7065200053746109
:10085F0072742074726967676572200053746172D5
:10086F007420636F756E7465722000436F6D6D61D8
:10087F006E64312000436F6D6D616E643220000134
:10088F00C00103800105400107000101C021038061
:10089F0042054063070084900613121D700201C8C1
:1008AF00C208852180D2A4C2A4D208852180D2A4F7
:1008BF00C2A4D2A622C208852180D2A4C2A47521C7
:1008CF0089852180D2A4C2A4D2A6227AFF75F834DA
:1008DF00C2FAC20ED20DD20F852180D2A4C2A4C2F9
:1008EF00A620A509753000900728D38046900000F8
:1008FF00758400EAF5F7A3E5827016C2AFD2C0D2B5
:10090F00C1D2AFA884B80809753000900703D3800F
:10091F0022EA30FFFDC2FF20A5DAE5840403540765
:10092F00F530E5315480F531E58254F0C40345319B
:10093F00F531C3D2A6758400227AAA11DC2211DA0E
:10094F00900617121D7074302530121D3F22121D94
:10095F007022E530121D3F22E531703C75F834C22C
:10096F00FAD20ED20DD20F852180D2A4C2A4C2A674
:10097F0090000075840074FFF5F7A3A884B80109EF
:10098F00753000900703D3800930FFFDC2FF20A50B
:10099F00E7C3D2A67584002275F834D2FAC20EC20C
:1009AF000DD20F852180D2A4C2A4C2A674FFF5F781
:1009BF0030FFFDC2FF20A5F6D2A62290000075845D
:1009CF000075F834C2FAC20ED20DD20F852180D233
:0809DF00A4C2A4C2A67599FF91
:1009E700C2AFD2C0D2C1D2AF3098F5C2988599F7BD
:1009F700A3A882B80013C2AFD2C0D2C1D2AFA88415
:100A0700B80806900703D3800930FFFDC2FF20A571
:100A1700CFC3D2A6758400220012018D121CEF905D
:100A2700000075840075F834C20EC20DD20F8521FF
:100A370080D2A4C2A4C2A674FFF5F78022F5F730CE
:100A470099FDA3E58270188000C2AFD2C0D2C1D28F
:100A5700AF3098F5C298A884B80804900703D3303C
:100A6700FFFDC29985F79920A5D33099FDC3D2A67A
:100A7700758400220012018D121CEF90000075840E
:100A87000075F834C20EC20DD20F852180D2A4C2E0
:100A9700A4C2A674FFF5F7801AF5F7A3E5827013D1
:100AA7008000C2AFD2C0D2C1D2AFA884B808049028
:100AB7000703D330FFFD20A5E0C3D2A6758400222B
:100AC700C208852180D2A4C2A4D208852180D2A4DD
:100AD700C2A475F834C2FAD20EC20DD20F85218096
:100AE700D2A4C2A4C2A675F7FF30FFFD75F0007847
:100AF7000075F7FF30FFFDC2FFE5F7121D3F083015
:100B0700A50AD5F0ECD2A6900754D322D2A6E87551
:100B1700F02084F530900617121D70E5302430124E
:0C0B27001D3F740D121D3FE53060DAC365
:100B33002251C75003121D70C2AFD2C0D2C1D2AF6F
:100B4300121D2EC2AFD2C0D2C1D2AF20A3E3C2A026
:100B5300D2A0C3228530F0900000E0121D3FA3E035
:100B6300121D3FA3E0121D3FA3E0121D3FA3D5F0CA
:100B7300E922C208852180D2A4C2A4D2088521809B
:100B8300D2A4C2A475310075300075F834C2FAD20C
:100B93000EC20DD20F852180D2A4C2A4C2A675F0C5
:100BA300007805790490000075F7FF30FFFDC2FF60
:100BB30075F7FF30FFFDC2FFE5F7D821F0A360060C
:100BC300046002053114D913781C7904053030E42C
:100BD3000CE5316008D2E7F5318002780130A503D6
:100BE300D5F0CDD2A6E5F0F4040475F02084F530F9
:100BF30022E531600D30E70590064F800890063BF3
:100C03008003900627121D70E5302430121D3F74B7
:100C130020121D3F2275F834C2FAD20EC20DD20F34
:100C2300852180D2A4C2A4C2A6900000C2AFD2C0C4
:100C3300D2C1D2AF3098F5C2988599F730FFFDC283
:100C4300FFA320A5E7D2A6121D62E582121D3FE590
:100C530083121D3F221216CBD20ED20D852180D2D4
:100C6300A4C2A4C20F852180D2A4C2A42212018DE2
:010C7300225E
:100C740012018D4120121D47F4F582121D47F4F52F
:100C840083121D4714F5F0D20AC20FD20ED20D857D
:100C94002180D2A4C2A47401121CEFD20985218040
:100CA400D2A4C2A4E5F0121CCFC2AFD2C0D2C1D22A
:100CB400AF00000000C209852180D2A4C2A4E5F0DF
:100CC400121CCF00000000A3E583458270CD74019F
:100CD400121CEFD20FC20EC20DC20A852180D2A40B
:100CE400C2A4C34120C20C852180D2A4C2A422D2B2
:100CF4000C852180D2A4C2A422C20B852180D2A457
:100D0400C2A422D20B852180D2A4C2A422E521123E
:100D14001D3F2290069D121D70900513E4936008F8
:100D2400121D3FA3A3A380F4740D121D3F2290064D
:100D340065121D7022C2A722D2A722121D47540396
:100D44007005D2B4C2B62215E07005C2B4C2B62290
:100D540015E07005C2B4D2B622D2B4D2B622121DA6
:100D64004775F833C2B7F5F730FFFDC2FFD2B77548
:100D7400F83422E480EB121D475401F5F0121D47AC
:100D8400F582121D47540FF583E5F070078583FA49
:0D0D94008582F9228583FC8582FB2280FE8A
:100DA100229006AE121D7022C2AF852180D2A47599
:100DB100F000B287B287B287B287B287B287B287B3
:100DC100B287B287B287B287B287B287B287B2875A
:100DD100B287B287B287B287B287B287B287B2874A
:100DE100B287B287B287B287B287B287B287B2873A
:100DF100B287B287B287B287B287B287B287B2872A
:1015AB00B287B287B287B287D5F00EC2A4D2C0D2AF
:1015BB00C1D2AF20A306D28722020DB3020DA9C25E
:1015CB00A812096774FA121CCF75683DE53CC2E29C
:0215DB00C2E468
:1015DD00C2E0D2E7F53CE558C2E2C2E4D2E0F558EC
:1015ED00D1E8D20ED20D852180D2A4C2A4C20F851E
:1015FD002180D2A4C2A4D218D2A80000C21822C33E
:10160D00121D47946C7021121D479461701A121DA2
:10161D004794737013121D479468700C75C700754D
:10162D00C60075B90502E00022C3121D47540F44D0
:10163D0030F5F8121D47A2E092A6121D47F5F730BE
:10164D00FFFDC2FFE5F7121D3FE4A2A592E0121DBA
:10165D003F75F834C322C38521F0121D47F521854E
:10166D002180D2A4C2A485F021C322C3121D47201C
:10167D00E708A2E092B6A2E192B4E4A2B692E0A28B
:10168D00B492E1121D3FC322D1AF7537FF7536FFFE
:10169D007535FF75346775336975327FE4D2E0F5C2
:1016AD003C22C000C0F0C0E0C28CC2A9783275F0F7
:1016BD0010E4F608D5F0FBD0E0D0F0D00022C28CBB
:1016CD00C2A9C0E0E4F58AF58CF538F539F53AF59F
:1016DD003B753D00D0E0D2A9D28C22C28CC2A98527
:1016ED00328A85338C85343885353985363A853758
:1016FD003B753D01D2A9D28C22F17DC2CAC2ADC2C9
:0C170D008CC2A9C2A8C28EC2AB121A4541
:10171900E4D2E0F53CE4F566D1E8D20ED20D85219C
:1017290080D2A4C2A4C20F852180D2A4C2A422C29D
:10173900CAC2ADC28CC2A9C2A8C28EC2AB121A4516
:10174900E4D2E0F53CE4D2E2D2E1F566D1E8D20E8A
:10175900D20D852180D2A4C2A4C20F852180D2A432
:10176900C2A42212018DC2CAC2ADC28EC2ABC2A826
:10177900121A4522783275F006121D47F4F608D57B
:10178900F0F7121D47F53C22D1CB22C28CC2A92207
:10179900E4A28C92E0A2A992E1121D3FC3E53C129A
:1017A9001D3F75F0067832E6F4121D3F08D5F0F7B3
:1017B900858A82858C83E582F4121D3FE583F412C4
:1017C9001D3FE538F4121D3FE539F4121D3FE53A96
:1017D900F4121D3FE53BF4121D3F22E53D702285C1
:1017E9008A82858C83E582121D3FE583121D3FE5C0
:1017F90038121D3FE539B13FE53AB13FE53BB13F0D
:1018090022858A82858C83C3E5829532B13FE5833F
:101819009533B13FE5389534B13FE5399535B13F59
:10182900E53A9536B13FE53B9537B13F22115275FF
:101839004EFF754DFF754CFF754BFF754AFF754996
:04184900FEE4D2E502
:10184D00D2E0F55322C000C0F0C0E0C28EC2AB782A
:10185D004975F00FE4F608D5F0FBD0E0D0F0D000DC
:10186D0022784975F006B147F4F608D5F0F8B1477E
:10187D00F553C322C28EC2AB2211A57543FF75422B
:10188D00FF7541FF7541FE7540CE753FD2753EFF28
:10189D00E4D2E2D2E1F54822C000C0F0C0E0C2CAF5
:1018AD00C2AD783E75F00FE4F608D5F0FBD0E0D070
:1018BD00F0D00022C2CAC2AD853ECC853FCD854059
:1018CD0044854145854246854347D2ADD2CA2278EB
:1018DD003E75F006B147F4F608D5F0F8B147F54876
:1018ED0022C2CAC2AD22E4A2CA92E0A2AD92E1B177
:1018FD003FC3E548B13F75F006783EE6F4B13F08C9
:10190D00D5F0F885CC8285CD83E582F4B13FE583B2
:10191D00F4B13FE544F4B13FE545F4B13FE546F49C
:10192D00B13FE547F4B13F22C2CAC2ADC28CC2A9D4
:10193D00C2A8C28EC2AB5145E4D2E2D2E1F548E471
:10194D00D2E0F53C11C11216E8D20ED20D852180E0
:10195D00D2A4C2A4C20F852180D2A4C2A4223190E8
:01196D00E495
:10196E00D2E3D2E0F558E4D2E2D2E3D2E4D2E5F506
:10197E0059755A0030E00AD2B030E205A2E392B1B6
:10198E00C322C000C0F0C0E0C2A8C218785475F0DF
:10199E0009E4F608D5F0FBD0E0D0F0D00022E4F553
:1019AE0054F555F556F557D218D2A80000C2182294
:1019BE00B147F55822B147F559B147F55AE55930B7
:1019CE00E00AD2B030E205A2E392B1C322C2A8224D
:1019DE00E4A2A892E0B13FC3E558B13FE5B0B13FF4
:1019EE00E554F4B13FE555F4B13FE556F4B13FE5AA
:1019FE0057F4B13F22755E9B755FFF7560FF756191
:101A0E00FF756600514522C000C0F0C0E0785E75DB
:101A1E00F009E4F608D5F0FBD0E0D0F0D00022B10A
:101A2E0047F4F55EB147F4F55FB147F4F560B147A1
:101A3E00F4F561B147F566C2AF855E62855F638579
:101A4E006064856165D2AF22E566B13FE55EF4B1B3
:101A5E003FE55FF4B13FE560F4B13FE561F4B13FBE
:101A6E00E562F4B13FE563F4B13FE564F4B13FE5FF
:051A7E0065F4B13F22F8
:101A8300E4F55BF55CF55D22B147F4F55CB147F431
:101A9300F55DB147F55B22C0E0C084C083C0828599
:101AA3005C82855D83758400A3E582458370F9D0EC
:101AB30082D083D084D0E022C084C083C082855C7E
:101AC30082855D83758400A3E582458370F9D082A6
:101AD300D083D08422B147F567B147F56822E56723
:101AE300B13FE568B13F22B14702039DD2B122C2A3
:101AF300B122B2B1227569C1756A01756BBC756C8F
:101B0300028000C000C001C002C0F0C082C083C018
:101B1300E0C0D0C2AFC374C195697401956A500720
:101B23007569C1756A01C3E56C7004E502F56C75EE
:101B33007500786D75F000135006A6F0057508C39F
:101B430005F070F38575F0786DE6C4F608D5F0F905
:101B5300A969AA6A9000207584008575F0786DE6FE
:101B6300F0A3E4F0A3C3E99401F9EA9400FA400670
:101B730008D5F0EB80E4E6F0A3E4F0A374F0F0A35F
:101B8300D0D0D0E0D083D082D0F0D002D001D0002A
:071B93008000C2AF75EF00F6
:101B9A0075D22075D30075D400856BEFD2AF22E5DC
:101BAA002270FC75D840D2DDD2AED210D21922E50D
:101BBA0069B13FE56AB13FA969AA6A9000207584B4
:101BCA0000E0B13FA3E0B13FA3C3E99401F9EA946D
:101BDA0000FA50EDC322B147F8B147F9B147FAB15B
:101BEA0047540F23234480C2AFF56B886C89698AF6
:101BFA006A7106D2AF2278009003A8758400E8F0D3
:101C0A00A32410F8E4F0A3B8D0F474C0F0A3E4F06D
:101C1A00A374F0F022E52270FCD211D219C2AF757A
:101C2A00EF0075D2A875D30375D40075D84075EF47
:101C3A009CD2AED2AFD2DD2011FDC21975F00D9043
:101C4A0003A8E0B13FA3E0B13FA3D5F0F57195D267
:101C5A00AED2AF22C0F0C083C082F5F07422B13F89
:101C6A00900813B170E5F030E005900822B17030A9
:101C7A00E105900831B17030E20590083FB170304B
:101C8A00E30590084FB17030E40590085CB17030FC
:101C9A00E50590086BB17030E60590087AB17030AE
:101CAA00E705900884B1707422B13F740DB13FE525
:091CBA00F0D082D083D0F02200AA
:101CC300000000000000000000000022C0F0C0E09F
:101CD300F5F080100000000000000000000000008C
:101CE30000000000D5F0EDD0E0D0F022C0F0C0E05D
:101CF300C082F58275F032D5F0FDD582F7D082D05F
:101D0300E0D0F022C0F0C082C083F5837582647591
:101D1300F032D5F0FDD582F7D583F1D083D082D0D0
:101D2300F022C0E07464B107D0E022C0E074FAB1DD
:101D330007D0E022B12E80F3B13780F8C299F5992C
:101D43003099FD22C2AFD2C0D2C1D2AF3098F5C212
:101D530098E59922209802D322C298E599C3227567
:101D630080FF20A307C2A0D2A030A3F922C0E0E4E1
:101D730093600AC299F5993099FDA380F2D0E022CD
:00000001FF
